{
  "contractName": "EmoticonStore",
  "abi": [
    {
      "inputs": [],
      "stateMutability": "nonpayable",
      "type": "constructor"
    },
    {
      "anonymous": false,
      "inputs": [
        {
          "indexed": false,
          "internalType": "uint256",
          "name": "codePoint",
          "type": "uint256"
        },
        {
          "indexed": false,
          "internalType": "address",
          "name": "buyer",
          "type": "address"
        }
      ],
      "name": "Purchase",
      "type": "event"
    },
    {
      "inputs": [
        {
          "internalType": "uint32",
          "name": "codePoint",
          "type": "uint32"
        }
      ],
      "name": "purchase",
      "outputs": [],
      "stateMutability": "payable",
      "type": "function"
    },
    {
      "inputs": [],
      "name": "getPurcashed",
      "outputs": [
        {
          "internalType": "uint32[]",
          "name": "",
          "type": "uint32[]"
        }
      ],
      "stateMutability": "view",
      "type": "function"
    },
    {
      "inputs": [
        {
          "internalType": "uint32",
          "name": "codePoint",
          "type": "uint32"
        }
      ],
      "name": "getBuyer",
      "outputs": [
        {
          "internalType": "address",
          "name": "",
          "type": "address"
        }
      ],
      "stateMutability": "view",
      "type": "function"
    },
    {
      "inputs": [],
      "name": "getStoreOwner",
      "outputs": [
        {
          "internalType": "address",
          "name": "",
          "type": "address"
        }
      ],
      "stateMutability": "view",
      "type": "function"
    }
  ],
  "bytecode": "0x608060405234801561001057600080fd5b50336000806101000a81548173ffffffffffffffffffffffffffffffffffffffff021916908373ffffffffffffffffffffffffffffffffffffffff1602179055506106b1806100606000396000f3fe60806040526004361061003f5760003560e01c80631cc43e081461004457806326665de8146100815780633e31ab73146100ac578063c7f04e65146100d7575b600080fd5b34801561005057600080fd5b5061006b60048036038101906100669190610427565b6100f3565b6040516100789190610495565b60405180910390f35b34801561008d57600080fd5b5061009661013c565b6040516100a39190610495565b60405180910390f35b3480156100b857600080fd5b506100c1610165565b6040516100ce919061056e565b60405180910390f35b6100f160048036038101906100ec9190610427565b6101e9565b005b6000600260008363ffffffff1663ffffffff16815260200190815260200160002060009054906101000a900473ffffffffffffffffffffffffffffffffffffffff169050919050565b60008060009054906101000a900473ffffffffffffffffffffffffffffffffffffffff16905090565b606060018054806020026020016040519081016040528092919081815260200182805480156101df57602002820191906000526020600020906000905b82829054906101000a900463ffffffff1663ffffffff16815260200190600401906020826003010492830192600103820291508084116101a25790505b5050505050905090565b600073ffffffffffffffffffffffffffffffffffffffff16600260008363ffffffff1663ffffffff16815260200190815260200160002060009054906101000a900473ffffffffffffffffffffffffffffffffffffffff1673ffffffffffffffffffffffffffffffffffffffff1614610297576040517f08c379a000000000000000000000000000000000000000000000000000000000815260040161028e906105ed565b60405180910390fd5b33600260008363ffffffff1663ffffffff16815260200190815260200160002060006101000a81548173ffffffffffffffffffffffffffffffffffffffff021916908373ffffffffffffffffffffffffffffffffffffffff16021790555060018190806001815401808255809150506001900390600052602060002090600891828204019190066004029091909190916101000a81548163ffffffff021916908363ffffffff16021790555060008054906101000a900473ffffffffffffffffffffffffffffffffffffffff1673ffffffffffffffffffffffffffffffffffffffff166108fc349081150290604051600060405180830381858888f193505050501580156103a9573d6000803e3d6000fd5b507f6b8e277b5ac199aea04139b79dce59b078ad22c9648f1bd3083495991809b77081336040516103db929190610652565b60405180910390a150565b600080fd5b600063ffffffff82169050919050565b610404816103eb565b811461040f57600080fd5b50565b600081359050610421816103fb565b92915050565b60006020828403121561043d5761043c6103e6565b5b600061044b84828501610412565b91505092915050565b600073ffffffffffffffffffffffffffffffffffffffff82169050919050565b600061047f82610454565b9050919050565b61048f81610474565b82525050565b60006020820190506104aa6000830184610486565b92915050565b600081519050919050565b600082825260208201905092915050565b6000819050602082019050919050565b6104e5816103eb565b82525050565b60006104f783836104dc565b60208301905092915050565b6000602082019050919050565b600061051b826104b0565b61052581856104bb565b9350610530836104cc565b8060005b8381101561056157815161054888826104eb565b975061055383610503565b925050600181019050610534565b5085935050505092915050565b600060208201905081810360008301526105888184610510565b905092915050565b600082825260208201905092915050565b7f456d6f7469636f6e20697320736f6c6400000000000000000000000000000000600082015250565b60006105d7601083610590565b91506105e2826105a1565b602082019050919050565b60006020820190508181036000830152610606816105ca565b9050919050565b6000819050919050565b6000819050919050565b600061063c610637610632846103eb565b610617565b61060d565b9050919050565b61064c81610621565b82525050565b60006040820190506106676000830185610643565b6106746020830184610486565b939250505056fea26469706673582212203a7df75034db0f64b7a8478e9f20e367515de028df58e73ac906f86842bf28d564736f6c63430008110033",
  "immutableReferences": {},
  "source": "// SPDX-License-Identifier: MIT\npragma solidity >=0.4.22 <0.9.0;\n\ncontract EmoticonStore {\n  address payable private storeOwner;\n\n  uint32[] private emoticons;  // CodePoint[]\n  mapping(uint32 => address) private buyers;  // CodePoint => Buyer\n\n  event Purchase(uint codePoint, address buyer);\n\n  constructor() {\n    storeOwner = payable(msg.sender);\n  }\n\n  function purchase(uint32 codePoint) external payable {\n    require(buyers[codePoint] == address(0), \"Emoticon is sold\");\n    buyers[codePoint] = msg.sender;\n    emoticons.push(codePoint);\n    storeOwner.transfer(msg.value);\n    emit Purchase(codePoint, msg.sender);\n  }\n\n  function getPurcashed() external view returns (uint32[] memory) {\n    return emoticons;\n  }\n\n  function getBuyer(uint32 codePoint) external view returns (address) {\n    return buyers[codePoint];\n  }\n\n  function getStoreOwner() external view returns (address) {\n    return storeOwner;\n  }\n}\n",
  "sourcePath": "/mnt/d/Playground/web3/emoticon-store/smart-contract/contracts/EmoticonStore.sol",
  "compiler": {
    "name": "solc",
    "version": "0.8.17+commit.8df45f5f.Emscripten.clang"
  },
  "schemaVersion": "3.4.10",
  "updatedAt": "2022-11-24T11:47:36.884Z",
  "devdoc": {
    "kind": "dev",
    "methods": {},
    "version": 1
  },
  "userdoc": {
    "kind": "user",
    "methods": {},
    "version": 1
  }
}